VOL1000001                           ATM CORP CAI                              1                                                    
HDR1GKOVD_DV2108B          000100012108   21210 21252 000000                                                                        
HDR2F0198000132                                   00                                                                                
EOF1GKOVD_DV2108B          000100012108   21210 21252 001929                                                                        
SEEUD        ABK   UN011330VDU  N53444070E091230790    N53444070E091230790E0040007872  316WGEABAKAN                        000012013
SEEUD        AT    US011390 DU                     AT  N57203200E061553000     005912     WGEARTEMOVSKIY                   000022105
SEEUD        BA    UN011370 DU                     BA  N57002700E082033800     004922  555WGEBAKCHAR                       000032106
SEEUD        BAN   UN011180VDU  N53222280E083344370    N53222280E083344370E0080007872     WGEBARNAUL/MIKHAYLOVKA           000042013
SEEUD        BDB   UI011260VDU  N57522600E114135600    N57522600E114135600W0100020672     WGEBODAYBO                       000052013
SEEUD        BG    UH011460 DU                     BG  N52224440E140264450     002202  429WGEBOGORODSKOYE                  000062108
SEEUD        BLG   UH011360VDU  N50233600E127253520    N50233600E127253520W0120007872     WGEBLAGOVESHCHENSK/IGNATYEVO     000072013
SEEUD        BRT   UI011360VDU  N56221950E101410890    N56221950E101410890W0020015752     WGEBRATSK                        000082013
SEEUD        DEM   UE011380VDU  N62322800E114011500    N62322800E114011500W0120013782  472WGEMIRNY                         000092108
SEEUD        EKB   US011320VDU  N56443550E060474930    N56443550E060474930E0150008002     WGEYEKATERINBURG/KOLTSOVO        000102013
SEEUD        ENS   UN011230VDU  N58280290E092071240    N58280290E092071240E0050002952  419WGEYENISEYSK                     000112013
SEEUD        GV    US010920VDU  N61204700E073245900    N61204700E073245900E0170001972     WGESURGUT                        000122014
SEEUD        HAB   UH011230VDU  N48324230E135123730    N48324230E135123730W0120002952  471WGEKHABAROVSK                    000132101
SEEUD        HMN   US011380VDU  N61015880E069073740    N61015880E069073740E0170002002  454WGEKHANTY-MANSIYSK               000142013
SEEUD        HTG   UN011310VDU  N71581040E102293350    N71581040E102293350E0050000982     WGEKHATANGA                      000152013
SEEUD        IGR   UN011230VDU  N67254980E086381020    N67254980E086381020E0170000982  472WGEIGARKA                        000162013
SEEUD        IKT   UI011300VDU  N52152950E104254120    N52152950E104254120W0040016732     WGEIRKUTSK                       000172013
SEEUD        KF    US011060 DU                     KF  N58302100E049203900     005910  293WGEKIROV/POBEDILOVO              000182105
SEEUD        KN    UH011060VDL  N43230320E132070620    N43230320E132070620W0100000982  356WGEVLADIVOSTOK/KNEVICHI          000192013
SEEUD        KRN   UI011280VDU  N57461880E108040290    N57461880E108040290W0062008862     WGEKIRENSK                       000202013
SEEUD        KRS   UN011320VDU  N56094680E092321020    N56094680E092321020E0040010002     WGEKRASNOYARSK                   000212013
SEEUD        KTN   UI011290VDU  N52012780E113182870    N52012780E113182870W0080022642  477WGECHITA/KADALA                  000222013
SEEUD        KU    UN011100 DU                     KU  N52275300E085245000     006892     WGEBIYSK                         000232013
SEEUD        KU    US011150 DU                     KU  N55283200E065243100     002950  503WGEKURGAN                        000242105
SEEUD        KZL   UN011230 DU                     KZL N51353700E094123380     033462  419WGEKYZYL                         000252102
SEEUD        LBN   US011330VDU  N55182510E061310350    N55182510E061310350E0140008002  512WGECHELYABINSK/BALANDINO         000262013
SEEUD        MGR   US011410VDU  N53241540E058452730    N53241540E058452730E0120014002     WGEMAGNITOGORSK                  000272013
SEEUD        MH    US011300 DU                     MH  N56263500E059074400     010832  464WGEMIKHAYLOVSK                   000282105
SEEUD        MNO   US011100VDU  N71122126E071584528    N71122126E071584528E0290000982     WGESABETTA                       000292013
SEEUD        NA    UH011240VDU  N53090840E140411730    N53090840E140411730W0120001972     WGENIKOLAEVSK-NA-AMURE           000302013
SEEUD        NJC   US011230VDU  N60563830E076280400    N60563830E076280400E0160002002  472WGENIZHNEVARTOVSK                000312013
SEEUD        NOR   UN011420VDU  N69181030E087181180    N69181030E087181180E0190005912     WGENORILSK/ALYKEL                000322013
SEEUD        NRG   UE011380VDU  N56544370E124535060    N56544370E124535060W0140028542  472WGENERYUNGRI/CHULMAN             000332013
SEEUD        NSK   UN011330VDU  N55004950E082382120    N55004950E082382120E0090003882  316WGENOVOSIBIRSK/TOLMACHEVO        000342013
SEEUD        PER   US010820VDU  N57551450E056014210    N57551450E056014210E0160004002  321WGEPERM/BOLSHOYE SAVINO          000352013
SEEUD        PKK   UH011370VDU  N53114110E158260590    N53114110E158260590W0070001972     WGEPETROPAVLOVSK                 000362013
SEEUD        PLR   UE011290VDU  N66243010E112013740    N66243010E112013740W0090017722  395WGEPOLIARNY                      000372013
SEEUD        PTG   UN011340VDU  N61355550E090004800    N61355550E090004800E0090001972     WGEPODKAMENNAYA TUNGUSKA         000382013
SEEUD        PTR   UH011060VDU  N45145120E147585040    N45145120E147585040W0080003942     WGEITURUP                        000392013
SEEUD        PWK   UH011000VDU  N69480870E170353060    N69480870E170353060W0040000002     WGEPEVEK                         000402106
SEEUD        RKN   UE011580VDU  N68442500E161201400    N68442500E161201400W0070000982     WGECHERSKY                       000412013
SEEUD        SH    US011330VDU  N66351710E066362850    N66351710E066362850E0230002002     WGESALEKHARD                     000422105
SEEUD        THN   UN011370VDU  N65480010E087560710    N65480010E087560710E0140001972  555WGETURUKHANSK                    000432013
SEEUD        TRN   UI011290VDU  N59511610E111024370    N59511610E111024370W0080013292  395WGETALAKAN                       000442013
SEEUD        ULD   UI011350VDU  N51484220E107262390    N51484220E107262390W0050016732     WGEULAN-UDE/MUKHINO              000452013
SEEUD        URT   US011160VDU  N57110140E065194840    N57110140E065194840E0150004002     WGETYUMEN/ROSHCHINO              000462013
SEEUD        UTR   US011000VDU  N71012400E074173270    N71012400E074173270E0290001972     WGEUTRENNIY                      000472102
SEEUD        UTS   UE011230VDU  N62053310E129470510    N62053310E129470510W0160003942     WGEYAKUTSK                       000482013
SEEUD        WDT   UH010820 DT                     WDT N43243070E132103000     000440  453WGEVLADIVOSTOK/KNEVICHI          000492013
SEEUD        WK    UH011200 DU                     WK  N48333650E134345680     001972     WGEVOLOCHAYEVKA                  000502014
SEEUD        YS    UH011490VDU  N46514900E142425850    N46514900E142425850W0110000982     WGEYUZHNO-SAKHALINSK/KHOMUTO     000512013
SEEUD        ZN    US011090 DU                     ZN  N60163400E059592540     008862  410WGESEVEROURALSK                  000522105
SEEUD UHSMUH IMO   UH011090 IT                     IMO N43571417E145410815     006140  189WGEYUZHNO-KURILSK                000531907
SEEUD USDMUS SLM   US010810 ITDN                   SLM N71003110E074145380     00197001   WGEUTRENNIY                      000542102
SEEUD USTJUS ITB   US011030 IT N                   ITB N58032630E068214910     001570  257WGETOBOLSK/NOVAYA                000552003
SEEUDB       A     UE008750H M  N58365110E125253130                       W0146           WGENDB24 ALDAN                   000562013
SEEUDB       A     UH003920HMMW N44282400E132062400                       W0110           PUKLMM16 KHOROL                  000572013
SEEUDB       A     UN008650HMMW N53221800E083342470                       E0074           WGELMM24 BARNAUL/MIKHAYLOVKA     000582013
SEEUDB       A     US006680HMMW N61203820E073264940                       E0170           WGELMM25 SURGUT                  000592013
SEEUDB       AAN   UH007650S    N56274000E138102000                       W0139           PUKBS-1 AYAN                     000602013
SEEUDB       AB    UN003600HO   N53420510E091211870                       E0036           WGELOM02 ABAKAN                  000612013
SEEUDB       AD    UE004510H    N58372420E125262380                       W0146           WGENDB24 ALDAN                   000622013
SEEUDB       AD    UH009150HO   N48300000E135113600                       W0121           PUKLOM23 KHABAROVSK/TSENTRALNY   000632013
SEEUDB       AG    UE007350H    N61163560E108014150                       W0071           WGEYERBOGACHEN                   000642106
SEEUDB       AJ    UN006850HMM  N56110050E092265620                       E0037           WGENDB/MKR11 KRASNOYARSK         000652108
SEEUDB       AK    UH007970HO   N44294200E132052400                       W0110           PUKLOM23 KHOROL                  000662013
SEEUDB       AL    UN004700H    N61420300E096283300                       E0027           WGEBAYKIT                        000672013
SEEUDB       AM    US003250HO   N61203900E073301750                       E0170           WGELOM25 SURGUT                  000682013
SEEUDB       AP    UN005350HO   N69160540E087152030                       E0183           WGELOM01 NORILSK/ALYKEL          000692013
SEEUDB       AR    UN004280HO   N53225340E083364700                       E0074           WGELOM24 BARNAUL/MIKHAYLOVKA     000702013
SEEUDB       AS    UH002750H    N66190900W179062800                       E0021           WGEKRESTA, ZALIV                 000712013
SEEUDB       AS    UN003680HO   N66503500E088303590                       E0140           WGELOM25 SVETLOGORSK             000722013
SEEUDB       B     UH005600HMMW N69454485E170363687                       W0038           WGELMM35 PEVEK                   000732106
SEEUDB       B     UN004650HM   N54431800E083070600                       E0083           PUKLMM26 BERDSK/TSENTRALNY       000742013
SEEUDB       B     US003450HMMW N61012380E069024160                       E0178           WGELMM06 KHANTY-MANSIYSK         000752013
SEEUDB       BA    UN006050H    N57002600E082033500                       E0101           WGEBAKCHAR                       000762108
SEEUDB       BB    US007520HO   N63542697E064563532                       E0200           WGELOM05 BEREZOVO                000772013
SEEUDB       BC    UH009600H    N64223700W173143100                       E0053           WGEBAY                           000782106
SEEUDB       BD    UI006350H    N52263200E103114100                       W0035           WGERAZDOLYE                      000792013
SEEUDB       BD    US007070HO   N61005970E068592040                       E0178           WGELOM06 KHANTY-MANSIYSK         000802013
SEEUDB       BE    UH006400H    N63021900E179181700                       E0015           WGEBERINGOVSKIY                  000812013
SEEUDB       BF    UN005350HO   N69211040E087242710                       E0183           WGELOM19 NORILSK/ALYKEL          000822013
SEEUDB       BG    UH009200H    N43530300E133151100                       W0108           WGEMURAVEYKA                     000832013
SEEUDB       BG    UN003200HO   N64174140E100264070                       W0000           WGETURA /GORNY                   000842013
SEEUDB       BGR   UH007650S H  N52414500E140264200                       W0126           WGEBS-5 BOGORODSKOYE             000852013
SEEUDB       BI    UN007000H    N69243200E086130100                       E0194           WGENDB DUDINKA                   000862013
SEEUDB       BK    UN003340HO   N56090560E092350250                       E0037           WGELOM29 KRASNOYARSK             000872013
SEEUDB       BK    US007050HO   N57524310E055570680                       E0158           WGELOM03 PERM/BOLSHOYE SAVINO    000882013
SEEUDB       BKN   UH007650S H  N46501200E134121200                       W0116           WGEBS-5 BIKIN                    000892013
SEEUDB       BL    UH006050H    N44120400E133071600                       W0109           WGECHERNYSHEVKA                  000902013
SEEUDB       BM    UH008900H    N62273600E155444700                       W0098           WGEOMSUKCHAN                     000912013
SEEUDB       BN    US004500H    N70185780E068205650                       E0280           WGENDB BOVANENKOVO               000922013
SEEUDB       BRZ   UH007650S H  N51401800E135404500                       W0129           PUKBS-5 BEREZOVY                 000932013
SEEUDB       BS    UI003740HO   N56210080E101463930                       W0026           WGELOM30 BRATSK                  000942013
SEEUDB       BT    UH004820H    N52275100E143385500                       W0118           WGENDB BERKUT                    000952105
SEEUDB       BU    UN003990HO   N53204070E083275450                       E0074           WGENDB/MKR06 BARNAUL/MIKHAYLOVKA 000962013
SEEUDB       C     UE005290HMM  N68445338E161182954                       W0084           PUKNDB13 CHERSKIY                000972013
SEEUDB       C     UI005450HMMW N52163210E104214660                       W0042           WGELMM12 IRKUTSK                 000982013
SEEUDB       C     US009750HMMW N53245680E058455970                       E0120           WGENDB/MKR18 MAGNITOGORSK        000992013
SEEUDB       CE    UN005100H    N58382600E086434800                       E0085           WGEMAKSIMKIN YAR                 001002108
SEEUDB       CI    UI003260HO   N56501230E105482730                       W0054           WGEUST-KUT                       001012013
SEEUDB       CMM   UH007650S H  N51200000E135150000                       W0129           WGEBS-5 TSIMMERMANOVKA           001022013
SEEUDB       CN    UI005140HO   N52170650E104193470                       W0042           WGELOM12 IRKUTSK                 001032013
SEEUDB       CO    US005300H    N64144800E060560000                       E0215           PUKSARANPAUL                     001042013
SEEUDB       CP    US004800HO   N53262500E058464000                       E0127           WGELOM19 MAGNITOGORSK            001052013
SEEUDB       CS    UI004200H    N53225200E103523200                       W0040           WGEOSA                           001062013
SEEUDB       CW    UE004790H    N62071030E129321880                       W0160           WGENDB19 MAGAN                   001072013
SEEUDB       CW    UI004540H    N50421800E106115400                       W0051           PUKNDB24R DZHIDA                 001082013
SEEUDB       CZ    UE004080H    N63444570E121470940                       W0150           WGEVILYUYSK                      001092013
SEEUDB       D     UH008900HM   N50254900E136554700                       W0125           PUKLMM18 KHURBA                  001102013
SEEUDB       D     UI005530HMMW N52011950E113202460                       W0088           WGELMM29 CHITA/KADALA            001112013
SEEUDB       D     US003880HMMW N56442360E060503050                       E0150           WGELMM26L KOLTSOVO               001122013
SEEUDB       DG    UI005180HO   N52010430E113224720                       W0089           WGELOM29 CHITA/KADALA            001132013
SEEUDB       DH    UH004750H    N57463551E158424321                       W0077           WGETIGIL                         001142013
SEEUDB       DKT   UH007650S H  N51285900E140463300                       W0122           PUKBS-5 DE-KASTRI                001152013
SEEUDB       DL    UH009000H    N61550700E159133100                       W0082           WGESEVERO-EVENSK                 001162013
SEEUDB       DM    US003150HO   N66364000E066422180                       E0230           WGELOM22 SALEKHARD               001172013
SEEUDB       DP    UH004400HO   N50272200E136552300                       W0125           WGELOM18 KHURBA                  001182013
SEEUDB       EB    UN008160H    N54554100E083050500                       E0084           WGEMATVEEVSKIY                   001192013
SEEUDB       EKT   US002790S H  N56530600E060424800                       E0151           PUKBS-5 YEKATERINBURG            001202013
SEEUDB       F     UE006600HMMW N71404800E128534200                       W0179           WGELMM03 TIKSI                   001212013
SEEUDB       F     UH007650HMMW N59544420E150401790                       W0114           WGELMM10 MAGADAN/SOKOL           001222013
SEEUDB       FA    UH006800H    N53082000E132495900                       W0135           WGEEKIMCHAN                      001232013
SEEUDB       FB    UN004100H    N58204200E082553200                       E0106           WGEKOLPASHEVO                    001242013
SEEUDB       FF    UN005100H    N69233620E088221261                       E0180           WGEVALEK                         001252013
SEEUDB       FI    UH003350H    N49263900E136340400                       W0122           WGETROITSKOE                     001262013
SEEUDB       FJ    UH005900H    N55002980E135225030                       W0139           WGENDB07 KIRAN                   001272013
SEEUDB       FK    UH003750HO   N59544910E150370660                       W0114           WGELOM10 MAGADAN/SOKOL           001282013
SEEUDB       FQ    UH003700HO   N50401150E137045390                       W0125           WGELOM19 DZEMGI                  001292013
SEEUDB       FV    UI005260H    N54511200E099073000                       W0009           PUKNIZHNEUDINSK                  001302013
SEEUDB       G     UN007000HMM  N55003320E082362250                       E0087           WGELMM34 NOVOSIBIRSK/TOLMACHEVO  001312103
SEEUDB       G     US006680HMMW N61203740E073212440                       E0171           WGELMM07 SURGUT                  001322013
SEEUDB       GD    UH002850H    N59050190E159534470                       W0074           WGEPALANA                        001332013
SEEUDB       GG    UI003740HO   N56233240E101364900                       W0025           WGELOM12 BRATSK                  001342013
SEEUDB       GH    UN008750HO   N54585500E082365490                       E0086           WGELOM34 NOVOSIBIRSK/TOLMACHEVO  001352013
SEEUDB       GI    US002900H    N70534200E078295400                       E0269           PUKNDB GYDA                      001362013
SEEUDB       GK    US003250HO   N61203820E073175570                       E0170           WGELOM07 SURGUT                  001372013
SEEUDB       GO    UN010610H    N56382800E092391200                       E0037           WGEGOREVOYE                      001382013
SEEUDB       GT    US003600H    N67285800E078415000                       E0218           WGENDB TAZOVSKIY                 001392013
SEEUDB       GU    UH003440H    N53281400E125474600                       W0131           WGEMAGDAGACHI                    001402013
SEEUDB       GV    UN006600H    N55191700E082421200                       E0088           WGEKOLYVAN                       001412013
SEEUDB       GW    UI003130HO   N52522300E103373100                       W0038           PUKLOM33 BELAYA                  001422013
SEEUDB       HBR   UH007650S H  N48304200E135070300                       W0121           PUKBS-20 KHABAROVSK              001432013
SEEUDB       HI    UH004690HO   N48340640E135144600                       W0121           WGELOM23L KHABAROVSK/NOVY        001442101
SEEUDB       HN    US005400H  W N67380000E072250000                       E0243           PUKNOVY PORT                     001452013
SEEUDB       HU    US007750H    N59090000E068540000                       E0162           PUKUVAT                          001462013
SEEUDB       HY    UH007100H    N53000100E158473600                       W0068           WGEKHALAKTYRKA                   001472013
SEEUDB       I     UI005450HM W N52153080E104253570                       W0042           WGELMM30 IRKUTSK                 001482013
SEEUDB       I     US003870H MW N63421350E066420450                       E0208           WGENDB16 BELOYARSKIY             001492013
SEEUDB       IA    UI004050HO   N57501700E114101900                       W0105           WGELOM06 BODAYBO                 001502013
SEEUDB       IO    UN003800HO   N56203400E085094500                       E0081           WGELOM03 TOMSK/BOGASHEVO         001512013
SEEUDB       IR    UI005140HO   N52145200E104280300                       W0043           WGELOM30 IRKUTSK                 001522013
SEEUDB       ISK   US005940S H  N57090000E053090000                       E0150           PUKBS-1530 IZHEVSK               001532013
SEEUDB       IU    US007850HO   N63433710E066421090                       E0208           WGELOM16 BELOYARSKIY             001542013
SEEUDB       JD    UH007500HO   N51490890E143100220                       W0118           WGELOM22 NOGLIKI                 001552014
SEEUDB       JH    US004500HO   N60544480E076244730                       E0160           WGELOM03 NIZHNEVARTOVSK          001562013
SEEUDB       JZ    UE002490H    N65564739E111332307                       W0090           WGENDB35 AYKHAL                  001572013
SEEUDB       K     UE006600HMMW N71430210E128544140                       W0179           WGELMM21 TIKSI                   001582013
SEEUDB       K     UH003890HMMW N64423600E177433600                       E0006           PUKLMM01 ANADYR/UGOLNY           001592013
SEEUDB       K     UN006200HMMW N55005860E082413940                       E0086           WGELMM25 NOVOSIBIRSK/TOLMACHEVO  001602103
SEEUDB       K     US003670HMMW N55180060E061323910                       E0139           WGELMM27 CHELYABINSK/BALANDINO   001612013
SEEUDB       KA    UI010200H    N52573900E105125000                       W0047           WGEOLZONY                        001622013
SEEUDB       KB    UH007900HOHW N64412400E177423600                       E0006           PUKLOM01 ANADYR/UGOLNY           001632013
SEEUDB       KB    UN003400HO   N58300100E099095800                       W0005           WGELOM24 KODINSK                 001642013
SEEUDB       KD    UN007150H    N55165100E082242000                       E0089           WGENOVOTYRYSHKINO                001652013
SEEUDB       KF    UE003200HO   N71442720E128551460                       W0179           WGELOM21 TIKSI                   001662013
SEEUDB       KG    US004900HO   N62144830E074331730                       E0176           WGELOM17 KOGALYM                 001672013
SEEUDB       KI    UI003090HO   N57463270E108083510                       W0070           WGELOM27 KIRENSK                 001682013
SEEUDB       KL    UH007600H    N66541322E169341590                       W0030           WGEKUPOL                         001692013
SEEUDB       KL    UI006120HO   N52195680E104140700                       W0041           WGELOM32 IRKUTSK-2/VOSTOCHNY     001702013
SEEUDB       KOM   UH007650S H  N50390000E136550000                       W0125           WGEBS-20 KOMSOMOLSK-NA-AMURE     001712013
SEEUDB       KP    UN004550HO   N55094200E083024200                       E0085           PUKLOM19 NOVOSIBIRSK/YELTSOVKA   001722013
SEEUDB       KS    US004120HO   N55173930E061351340                       E0139           WGELOM27 CHELYABINSK/BALANDINO   001732013
SEEUDB       KT    UN003100HO   N55011530E082442830                       E0086           WGELOM25 NOVOSIBIRSK/TOLMACHEVO  001742013
SEEUDB       KU    UI004500H    N53410700E119423600                       W0118           WGEMOGOCHA                       001752013
SEEUDB       KUT   UE008640S H  N62140700E129490000                       W0160           WGEBS YAKUTSK                    001762013
SEEUDB       KZ    UN010000H    N56201800E078212600                       E0113           WGESEVERNOYE                     001772013
SEEUDB       L     UH002950HMMW N43230740E132071570                       W0106           WGELMM7R KNEVICHI                001782013
SEEUDB       L     UN006500HMMW N67265920E086352050                       E0164           WGELMM12 IGARKA                  001792013
SEEUDB       L     US003920HMMW N55184050E061275380                       E0140           WGELMM09 CHELYABINSK/BALANDINO   001802013
SEEUDB       LA    UH004450H    N65350300W171002700                       E0064           WGELAVRENTIYA, ZALIV             001812013
SEEUDB       LB    UH003350H    N52244060E143233450                       W0119           WGENDB ORLAN                     001822013
SEEUDB       LB    US004520HO   N55190280E061251200                       E0140           WGELOM09 CHELYABINSK/BALANDINO   001832013
SEEUDB       LBN   US007380S H  N55081200E061233000                       E0138           PUKBS-72 CHELYABINSK             001842013
SEEUDB       LC    UH006870H    N62552300E152252600                       W0113           WGESEYMCHAN                      001852014
SEEUDB       LM    UE004600H    N63573660E127252790                       W0163           WGESANGAR                        001862013
SEEUDB       LM    UI003130HO   N52573200E103312300                       W0037           WGELOM15 BELAYA                  001872013
SEEUDB       LN    UH003680HMMW N43242990E132103990                       W0106           WGENDB/MKR25L KNEVICHI           001882013
SEEUDB       LN    UN004040HO   N60201420E102150360                       W0026           WGELOM06 VANAVARA                001892013
SEEUDB       LS    UH006300HO   N43215520E132041710                       W0106           WGELOM07R KNEVICHI               001902013
SEEUDB       LS    UN003150HO   N67281530E086315400                       E0165           WGELOM12 IGARKA                  001912013
SEEUDB       LS    US002980HO   N62035400E065363500                       E0193           WGELOM34 NYAGAN                  001922013
SEEUDB       LT    UE006000HO   N70383320E148014610                       W0145           WGELOM26 CHOKURDAKH              001932013
SEEUDB       LU    UN010650H    N53231800E092043000                       E0040           PUKSHUSHENSKOYE/KAZANTSEVO       001942013
SEEUDB       LV    US006350HO   N56525470E053300890                       E0148           WGELOM19 IZHEVSK                 001952013
SEEUDB       LW    UH009200HO   N53065010E158292050                       W0070           WGELOM34L ELIZOVO                001962013
SEEUDB       LZ    UH003500HO   N50223030E127254370                       W0125           WGELOM36 IGNATYEVO               001972013
SEEUDB       M     UE006850HMMW N62064920E129482730                       W0160           WGELMM23L YAKUTSK                001982013
SEEUDB       M     UH008000HMMW N53090930E140410390                       W0126           WGELMM29 NIKOLAEVSK-NA-AMURE     001992013
SEEUDB       M     UI008240HMMW N50232200E116184700                       W0097           PUKNDB08 CHINDANT                002002013
SEEUDB       M     UN003180HMMW N60433500E077390000                       E0150           WGELMM15 STREZHEVOY              002012013
SEEUDB       MB    US003450HO   N68015120E075025000                       E0240           WGELOM13 YAMBURG                 002022013
SEEUDB       MD    US006350HO   N56473780E053253880                       E0148           WGELOM01 IZHEVSK                 002032013
SEEUDB       ME    UH004440HO   N53090260E140432890                       W0126           WGELOM29 NIKOLAYEVSK-NA-AMURE    002042013
SEEUDB       MF    UE003340HO   N62080260E129502680                       W0160           WGELOM23L YAKUTSK                002052013
SEEUDB       MG    UE008020H  W N60204400E134244600                       W0154           WGEUST-MAYA                      002062013
SEEUDB       MK    UH003450H    N53193300E157321000                       W0074           WGEMALKA                         002072013
SEEUDB       ML    UN007400H    N56133300E073554600                       E0127           WGECHAPAYEVO                     002082013
SEEUDB       MP    UI006250H    N55475690E109354280                       W0076           WGENIZHNEANGARSK                 002092102
SEEUDB       MP    UN006550HO   N60451000E077380200                       E0150           WGELOM15 STREZHEVOY              002102013
SEEUDB       MR    UH003050H    N48333700E134345500                       W0121           WGEVOLOCHAEVKA                   002112013
SEEUDB       MW    UH005920HO   N54422260E158363850                       W0072           WGENDB24 MILKOVO                 002122013
SEEUDB       MX    UI004450H    N54475400E105051400                       W0048           WGEZHIGALOVO                     002132013
SEEUDB       N     UE003500HMMW N62074640E129352660                       W0160           WGELMM23 MAGAN                   002142013
SEEUDB       N     UN009950HMM  N55170277E086082738                       E0071           WGELMM23 KEMEROVO                002152013
SEEUDB       N     US006150HMM  N62075200E065365600                       E0194           WGELMM16 NYAGAN                  002162013
SEEUDB       NB    UH004000H    N65314000W179173700                       E0021           WGENDB UELKAL                    002172013
SEEUDB       NC    UN004890HO   N55175937E086104191                       E0071           WGELOM23 KEMEROVO                002182013
SEEUDB       ND    US002750HO   N66050450E076242260                       E0211           WGELOM09 NOVY URENGOY            002192013
SEEUDB       NE    UE007150HO W N62084760E129364220                       W0160           WGELOM23 MAGAN                   002202013
SEEUDB       NE    UH003800H    N57373700E136085300                       W0146           WGENDB04 NELKAN                  002212013
SEEUDB       NH    UH005690H    N52092445E143533750                       W0117           WGENAN HAI SHI HAO               002222013
SEEUDB       NH    UI006990H    N52445400E104271700                       W0043           WGENIKOLSK                       002232013
SEEUDB       NH    US003720H    N58083200E068163300                       E0155           WGETOBOLSK                       002242013
SEEUDB       NK    UH005950H    N55102420E166024960                       W0040           WGENIKOLSKOYE                    002252105
SEEUDB       NKA1  UH007650S H  N53070000E140510000                       W0126           WGEBS-7 NIKOLAYEVSK-NA-AMURE     002262013
SEEUDB       NKA2  UH012240S H  N53070000E140510000                       W0126           WGEBS-5 NIKOLAYEVSK-NA-AMURE     002272013
SEEUDB       NL    UE003000H    N68295551E112285709                       W0104           WGENDB01 OLENEK                  002282013
SEEUDB       NM    UN004310H    N58083190E102355290                       W0031           WGEUST-ILIMSK                    002292013
SEEUDB       NN    UN004820H    N56141200E083591900                       E0087           WGEKOZHEVNIKOVO                  002302013
SEEUDB       NO    US004850HO   N65312840E072392020                       E0217           WGELOM14 NADYM                   002312013
SEEUDB       NR    UN007500H    N54231500E082560200                       E0082           WGENOVOLOKTI                     002322013
SEEUDB       NRL   UN001620S H  N69241200E087053400                       E0186           WGEBS-660 NORILSK                002332013
SEEUDB       NS    UH004350H    N51300400E156322100                       W0074           WGEOZERNAYA                      002342102
SEEUDB       NT    UE003460HO   N63184803E118262145                       W0137           WGELOM26 NYURBA                  002352013
SEEUDB       NZ    UE003850HO   N62303590E113573340                       W0113           WGELOM07 MIRNY                   002362013
SEEUDB       O     UE002530HMMW N60242800E120303600                       W0138           WGELMM26R OLEKMINSK              002372013
SEEUDB       O     UN006810HMMW N71581250E102260880                       E0034           WGELMM06 KHATANGA                002382013
SEEUDB       O     US002130HMMW N58292400E049190690                       E0154           WGELMM03 KIROV/POBEDILOVO        002392013
SEEUDB       OA    UN003320HO   N71570680E102184300                       E0036           WGELOM06 KHATANGA                002402013
SEEUDB       OD    UE002850H    N71553510E114050447                       W0108           WGESASKYLAKH                     002412013
SEEUDB       ON    UE005200HO   N60250100E120333500                       W0138           WGELOM26R OLEKMINSK              002422013
SEEUDB       ON    US003450HO   N67564020E075085750                       E0240           WGELOM31 YAMBURG                 002432013
SEEUDB       OR    US004380HO   N58282200E049165650                       E0154           WGELOM03 KIROV/POBEDILOVO        002442013
SEEUDB       OS    UH006000H    N59141870E163041800                       W0060           WGEOSSORA                        002452101
SEEUDB       P     UH006450HMMW N46543760E142430480                       W0105           WGELMM19 KHOMUTOVO               002462013
SEEUDB       PA    UH008900H    N54415200E135170300                       W0138           WGECHUMIKAN                      002472014
SEEUDB       PI    UH005050HO   N46561190E142430720                       W0105           WGELOM19 KHOMUTOVO               002482013
SEEUDB       PJ    UE008150H    N67270000E153420000                       W0116           PUKSREDNEKOLYMSK                 002492013
SEEUDB       PK    UH005600H    N69481200E170350030                       W0038           WGENDB17 PEVEK                   002502013
SEEUDB       PM    US007800HO   N60034840E064482510                       E0170           WGELOM36 URAY                    002512013
SEEUDB       PN    UI004250H    N53242700E109002700                       W0069           WGEUST-BARGUZIN                  002522013
SEEUDB       PPK1  UH001800S H  N53110490E158242030                       W0070           WGEBS-180 P.KAMCHATSKY/YELIZOVO  002532013
SEEUDB       PPK2  UH005760S H  N53100000E158250000                       W0070           WGEBS-576 P.KAMCHATSKY/YELIZOVO  002542013
SEEUDB       PR    UH005350HO   N53065040E158293270                       W0070           WGELOM34R ELIZOVO                002552013
SEEUDB       PRM   US005850S H  N58010600E056440600                       E0159           PUKBS-172 PERM                   002562013
SEEUDB       PS    UN004900HO   N51415600E094274000                       E0014           WGELOM23 KYZYL                   002572013
SEEUDB       PX    US007050HO   N57565860E056052180                       E0158           WGELOM21 PERM/BOLSHOYE SAVINO    002582013
SEEUDB       PZ    US004850HO   N65262140E072443010                       E0216           WGELOM32 NADYM                   002592013
SEEUDB       QC    UN011950H    N50155700E085360290                       E0052           WGEUST-KOKSA                     002602013
SEEUDB       R     UE009300HMM  N56541880E124522170                       W0140           WGELMM08 NERYUNGRI/CHULMAN       002612013
SEEUDB       R     UN005970HMM  N55003080E082362320                       E0087           WGELMM07 NOVOSIBIRSK/TOLMACHEVO  002622103
SEEUDB       R     US009750HMMW N53221410E058444120                       E0120           WGELMM36 MAGNITOGORSK            002632013
SEEUDB       RD    UN005200H    N58293500E092062600                       E0048           PUKNDB17 YENISEYSK               002642013
SEEUDB       RD    US007080HO   N55260370E065222490                       E0138           WGELOM02 KURGAN                  002652013
SEEUDB       RE    UN002900HMM  N61360200E090011290                       E0090           WGENDB/MKR2 PODKAMENNAYA TUNGUSKA002662013
SEEUDB       RF    US004800HO   N53203830E058435630                       E0120           WGELOM36 MAGNITOGORSK            002672013
SEEUDB       RJ    US008650H    N60040000E071290000                       E0164           PUKSALYM                         002682013
SEEUDB       RL    UN003900HO   N56092900E092373880                       E0036           WGELOM29 KRASNOYARSK/CHEREMSHANKA002692108
SEEUDB       RM    UI004200H    N58183700E112541200                       W0099           WGEMAMA                          002702013
SEEUDB       RM    UN009500HO   N54572350E073135390                       E0120           WGELOM07 OMSK/TSENTRALNY         002712013
SEEUDB       RN    UE004580HO   N56533720E124490360                       W0140           WGELOM08 NERYUNGRI/CHULMAN       002722013
SEEUDB       RN    US003150HO   N57084760E065140720                       E0150           WGELOM03 TYUMEN/ROSHCHINO        002732013
SEEUDB       RO    UN009210H    N55155400E094523900                       E0019           WGEAGINSKOE                      002742013
SEEUDB       RP    UH005110H    N52582531E138493070                       W0129           WGEKHERPUCHI                     002752014
SEEUDB       S     UE007700HMMW N62325150E114045160                       W0113           WGELMM25 MIRNY                   002762013
SEEUDB       S     UH006450HMMW N46513610E142430050                       W0105           WGELMM01 KHOMUTOVO               002772013
SEEUDB       S     UN007220HMMW N55032650E082353150                       E0087           WGELMM16 NOVOSIBIRSK/TOLMACHEVO  002782013
SEEUDB       SA    US008350H    N71120664E071570441                       E0290           WGENDB/MKR04 SABETTA             002792013
SEEUDB       SAH   UH005310S H  N46574500E142445300                       W0105           WGEBS-7 YUZHNO-SAKHALINSK        002802013
SEEUDB       SER   US013050S H  N59380000E060340000                       E0173           PUKBS-381 SEROV                  002812013
SEEUDB       SG    UE003850HO   N62334360E114074050                       W0114           WGELOM25 MIRNY                   002822108
SEEUDB       SL    UH005050HO   N46500160E142425510                       W0105           WGELOM01 KHOMUTOVO               002832013
SEEUDB       SM    UH008350HO   N57184800E139254800                       W0139           WGETUKCHI                        002842013
SEEUDB       SP    UN005350H    N56412900E085194500                       E0082           WGEMALINOVKA                     002852013
SEEUDB       ST    US008350H    N71132337E072055565                       E0290           WGENDB/MKR22 SABETTA             002862013
SEEUDB       SV    UN005200HO   N55045780E082350120                       E0087           WGELOM16 NOVOSIBIRSK/TOLMACHEVO  002872013
SEEUDB       SW    UH005520HO   N54175100E155572300                       W0082           WGESOBOLEVO                      002882013
SEEUDB       SWG   UH007650S H  N48560800E140142100                       W0116           PUKBS-5 SOVETSKAYA GAVAN         002892013
SEEUDB       SZ    UN009650H    N55212500E078181000                       E0106           WGEBARABINSK                     002902013
SEEUDB       T     UH003560HM   N75451800E137323000                       W0181           PUKLMM05 TEMP                    002912013
SEEUDB       T     UI006900HM   N59512560E111024370                       W0091           WGELMM01 TALAKAN                 002922013
SEEUDB       T     US006500HMMW N57113910E065195410                       E0150           WGELMM21 TYUMEN/ROSHCHINO        002932013
SEEUDB       TD    UH003250H    N45540300E134515800                       W0113           WGEBOGUSLAVETS                   002942013
SEEUDB       TI    UN003800HO   N56252860E085153510                       E0081           WGELOM21 TOMSK/BOGASHEVO         002952013
SEEUDB       TK    UH008200H    N60215660E166004640                       W0048           WGETILICHIKI                     002962013
SEEUDB       TK    UN009500HO   N54584860E073242090                       E0119           WGELOM25 OMSK/TSENTRALNY         002972013
SEEUDB       TM    US003150HO   N57124440E065220990                       E0151           WGELOM21 TYUMEN/ROSHCHINO        002982013
SEEUDB       TR    UN009800H    N52090000E093541800                       E0018           WGETURAN                         002992013
SEEUDB       TRI   UH007650S H  N49221800E136351200                       W0122           WGEBS-5 TROITSKOYE               003002013
SEEUDB       TWR   UH007380S H  N43210000E131530000                       W0106           WGEBS-500 TAVRICHANKA            003012013
SEEUDB       U     UH003890HMMW N64453600E177452400                       E0006           PUKLMM19 ANADYR/UGOLNY           003022013
SEEUDB       U     UI003200H MW N51481800E107241380                       W0058           WGENDB08 ULAN-UDE/MUKHINO        003032013
SEEUDB       U     UN006200HMMW N53495690E086532710                       E0060           WGELMM19 NOVOKUZNETSK/SPICHENKOVO003042013
SEEUDB       U     US007490HMMW N56444090E060502000                       E0150           WGENDB/MKR26R KOLTSOVO           003052013
SEEUDB       UB    UH009070H    N52485900E156160300                       W0078           WGEUST-BOLSHERETSK               003062013
SEEUDB       UC    US006150HO   N63134140E075185220                       E0190           WGELOM19 NOYABRSK                003072013
SEEUDB       UE    UE005900H    N64321000E143012050                       W0148           WGENDB08B UST-NERA               003082013
SEEUDB       UF    UH004690HO   N48291810E135081310                       W0121           WGELOM05R KHABAROVSK/NOVY        003092101
SEEUDB       UF    UN003000HO   N53512350E086542030                       E0060           WGELOM19 NOVOKUZNETSK/SPICHENKOVO003102013
SEEUDB       UG    UH004450HO   N57401700E134220900                       W0147           WGEURGALAN                       003112013
SEEUDB       UI    UH003700HO   N50314530E137045010                       W0125           WGELOM01 DZEMGI                  003122013
SEEUDB       UJ    UN006620H    N55565100E092291800                       E0036           WGEUST-MANA                      003132013
SEEUDB       UK    UH004100H    N56132550E162411560                       W0057           WGEUST-KAMCHATSK                 003142013
SEEUDB       UN    US007080HO   N55310510E065273070                       E0138           WGELOM20 KURGAN                  003152013
SEEUDB       UX    UH007900HOHW N64470600E177460600                       E0006           PUKLOM19 ANADYR/UGOLNY           003162013
SEEUDB       UY    UN004900HM   N51392400E094221800                       E0014           PUKLMM05 KYZYL                   003172013
SEEUDB       UY    US010750H    N61171590E063394900                       E0187           WGELOM30 SOVETSKIY               003182013
SEEUDB       V     UE006850HMMW N62042500E129443600                       W0160           WGELMM05R YAKUTSK                003192013
SEEUDB       VD    UE003340HO W N62031200E129423900                       W0160           WGELOM05R YAKUTSK                003202013
SEEUDB       VR    UE004820H    N65444680E150532100                       W0124           WGENDB ZYRYANKA                  003212013
SEEUDB       W     UE002550HMM  N66223900E112024790                       W0102           WGELMM35 POLYARNY                003222013
SEEUDB       W     UH004650HM   N53084470E158280120                       W0070           WGELMM34L ELIZOVO                003232013
SEEUDB       WA    UH003750HO   N59543490E150462390                       W0113           WGENDB/MKR28 MAGADAN/SOKOL       003242013
SEEUDB       WD    UH006350H  W N52224330E140264670                       W0125           WGEBOGORODSKOYE                  003252014
SEEUDB       WD    UN004500H    N60151900E090114400                       E0071           WGEYARTSEVO                      003262013
SEEUDB       WI    US007800HO   N60090730E064504750                       E0170           WGELOM18 URAY                    003272013
SEEUDB       WN    UE005250HO   N66211580E112034940                       W0102           WGELOM35 POLYARNY                003282013
SEEUDB       WT    UI003650H    N59273600E112341200                       W0090           PUKVITIM                         003292013
SEEUDB       WZ    UH004600H    N50380800E128020700                       W0126           WGESREDNEBELOYE                  003302013
SEEUDB       WZM   UH007650S H  N47320100E134451800                       W0118           PUKBS-5 VYAZEMSKIY               003312013
SEEUDB       X     US005990HMMW N57115020E065183540                       E0151           WGELMM12 TYUMEN/ROSHCHINO        003322013
SEEUDB       XA    US004380HO   N58320450E049244490                       E0154           WGELOM21 KIROV/POBEDILIVO        003332013
SEEUDB       XV    UN003500H    N58352300E076302700                       E0136           WGENOVY VASYUGAN                 003342013
SEEUDB       XZ    US002900HO   N57124050E065170180                       E0151           WGELOM12 TYUMEN/ROSHCHINO        003352013
SEEUDB       Y     UN005550HMM  N55015850E074372410                       E0120           WGELMM22 KALACHINSK              003362013
SEEUDB       YC    US002750HO   N66032210E076373780                       E0209           WGELOM27 NOVY URENGOY            003372013
SEEUDB       YO    UH004480H    N65150070E160303740                       W0081           WGENDB14 OMOLON                  003382013
SEEUDB       YS    UN011300HO   N55025520E074392270                       E0120           WGELOM22 KALACHINSK              003392013
SEEUDB       YW    UI003500H    N56213300E114552000                       W0106           WGETAKSIMO                       003402013
SEEUDB       YX    UH010400H M  N53113030E158261880                       W0070           WGENDB16L ELIZOVO                003412013
SEEUDB       Z     UE007600HMM  N67380300E134403010                       W0172           WGELMM05 BATAGAY                 003422013
SEEUDB       Z     UI003200HMMW N51485260E107283870                       W0059           WGELMM26 ULAN-UDE/MUKHINO        003432013
SEEUDB       Z     UN006810HMMW N71591440E102331440                       E0033           WGELMM24 KHATANGA                003442013
SEEUDB       Z     US003450HMMW N61020200E069074330                       E0178           WGELMM24 KHANTY-MANSIYSK         003452013
SEEUDB       ZA    UE003750HO   N67362840E134382070                       W0172           WGELOM05 BATAGAY                 003462013
SEEUDB       ZD    UI003490HO   N51491310E107311580                       W0059           WGELOM26 ULAN-UDE/MUKHINO        003472013
SEEUDB       ZE    US006150HO   N63083070E075133250                       E0190           WGELOM01 NOYABRSK                003482013
SEEUDB       ZJ    US007070HO   N61022760E069111070                       E0178           WGELOM24 KHANTY-MANSIYSK         003492013
SEEUDB       ZL    UH004400HO   N50214500E136564700                       W0124           WGELOM36 KHURBA                  003502013
SEEUDB       ZM    UI005180HO   N52022310E113112530                       W0088           WGELOM11 CHITA/KADALA            003512013
SEEUDB       ZP    UI006120HO   N52241220E104075040                       W0041           WGELOM14 IRKUTSK-2/VOSTOCHNY     003522013
SEEUDB       ZT    UN003320HO   N71595450E102375090                       E0032           WGELOM24 KHATANGA                003532013
SEEUEAENRT   ABAKI UE0    R Z L N67335300E135094700                       W0171     WGE           ABAKI                    003542013
SEEUEAENRT   ABATA UE0    RUZ B N70000200E135400800                       W0176     WGE           ABATA                    003552013
SEEUEAENRT   ABEDI UH0    R Z B N58450700E159195000                       W0076     WGE           ABEDI                    003562013
SEEUEAENRT   ABETA UE0    R Z B N63343100E127564500                       W0162     WGE           ABETA                    003572013
SEEUEAENRT   ABGAT UH0    R Z L N65132400E172115300                       W0023     WGE           ABGAT                    003582013
SEEUEAENRT   ABGIK UH0    R Z L N64475200W172395800                       E0056     WGE           ABGIK                    003592013
SEEUEAENRT   ABGON US0    R Z B N65343000E081322400                       E0178     WGE           ABGON                    003602013
SEEUEAENRT   ABILA UH0    R Z B N67323000E170514200                       W0033     WGE           ABILA                    003612013
SEEUEAENRT   ABION UH0    R Z L N65475900W173594700                       E0048     WGE           ABION                    003622013
SEEUEAENRT   ABMAR UH0    RUZ L N59275500E145520700                       W0129     WGE           ABMAR                    003632013
SEEUEAENRT   ABMOL UH0    R Z B N55085800E165392400                       W0042     WGE           ABMOL                    003642013
SEEUEAENRT   ABNAK UH0    R Z B N52504900E142461800                       W0121     WGE           ABNAK                    003652013
SEEUEAENRT   ABOGA US0    R Z B N65150300E077253800                       E0196     WGE           ABOGA                    003662013
SEEUEAENRT   ABOUT UH0    R Z L N69294200E176111300                       W0007     WGE           ABOUT                    003672013
SEEUEAENRT   ABRAM UH0    R Z L N50084300E142530500                       W0114     WGE           ABRAM                    003682013
SEEUEAENRT   ABSED UH0    R Z B N50534300E133023500                       W0129     WGE           ABSED                    003692013
SEEUEAENRT   ABUMA UN0    R Z B N64382100E101114200                       W0006     WGE           ABUMA                    003702013
SEEUEAENRT   ADALU UH0    R Z B N66104300E164092800                       W0065     WGE           ADALU                    003712013
SEEUEAENRT   ADAOM UI0    R Z L N53283200E109183100                       W0071     WGE           ADAOM                    003722013
SEEUEAENRT   ADARA UH0    R Z L N52051300E141555300                       W0121     WGE           ADARA                    003732013
SEEUEAENRT   ADARO UN0    CUZ B N50470600E081524200                       E0068     WGE           ADARO                    003742013
SEEUEAENRT   ADEAN UE0    R Z L N71002600E138041200                       W0174     WGE           ADEAN                    003752013
SEEUEAENRT   ADERU UE0    R Z B N69213900E146501700                       W0147     WGE           ADERU                    003762013
SEEUEAENRT   ADIGI UH0    R Z L N52385500E141121100                       W0124     WGE           ADIGI                    003772013
SEEUEAENRT   ADIPA UN0    R Z B N58112200E099284800                       W0008     WGE           ADIPA                    003782013
SEEUEAENRT   ADIRI UN0    R Z B N71010900E079323000                       E0267     WGE           ADIRI                    003792013
SEEUEAENRT   ADIRO UE0    R Z L N70055800E138000000                       W0172     WGE           ADIRO                    003802013
SEEUEAENRT   ADLEM UH0    R Z B N58463500E163083600                       W0059     WGE           ADLEM                    003812013
SEEUEAENRT   ADLEP UH0    R Z L N53044300E142014800                       W0124     WGE           ADLEP                    003822013
SEEUEAENRT   ADLOM UE0    R Z L N70201300E142301300                       W0163     WGE           ADLOM                    003832013
SEEUEAENRT   ADUGO UE0    RUZ B N69335400E135275300                       W0175     WGE           ADUGO                    003842108
SEEUEAENRT   AGAEL UE0    RUZ L N69294600E112540100                       W0105     WGE           AGAEL                    003852013
SEEUEAENRT   AGDIA UH0    R Z L N67062900W176265300                       E0035     WGE           AGDIA                    003862013
SEEUEAENRT   AGEBI US0    R Z B N65185300E082210500                       E0170     WGE           AGEBI                    003872013
SEEUEAENRT   AGEID UE0    R Z L N70545500E133000000                       W0180     WGE           AGEID                    003882013
SEEUEAENRT   AGETU UE0    RUZ L N69530000E137435100                       W0172     WGE           AGETU                    003892013
SEEUEAENRT   AGINO UI0    R Z B N51060200E114320200                       W0091     WGE           AGINO                    003902013
SEEUEAENRT   AGINT UH0    R Z L N64544100W172302400                       E0056     WGE           AGINT                    003912013
SEEUEAENRT   AGIRI UE0    R Z L N70490700E133000000                       W0179     WGE           AGIRI                    003922013
SEEUEAENRT   AGLON UH0    R Z L N63082500E152224600                       W0113     WGE           AGLON                    003932013
SEEUEAENRT   AGOPI UE0    R Z B N68401100E147251200                       W0143     WGE           AGOPI                    003942013
SEEUEAENRT   AGOSU UH0    R Z L N54020700E134122800                       W0137     WGE           AGOSU                    003952104
SEEUEAENRT   AGSSU UH0    R Z L N47354800E138220600                       W0115     WGE           AGSSU                    003962013
SEEUEAENRT   AKEMA UE0    R Z L N60340200E134352000                       W0154     WGE           AKEMA                    003972013
SEEUEAENRT   AKEPU UH0    R Z L N50105800E128113800                       W0125     WGE           AKEPU                    003982108
SEEUEAENRT   AKIMO UH0    R Z L N57162500E158492000                       W0076     WGE           AKIMO                    003992013
SEEUEAENRT   AKIND UH0    R Z L N53200200E127180400                       W0133     WGE           AKIND                    004002013
SEEUEAENRT   AKOLA UH0    R Z B N48360100E140110500                       W0115     WGE           AKOLA                    004012013
SEEUEAENRT   AKONI UE0    R Z L N71582100E117394900                       W0136     WGE           AKONI                    004022013
SEEUEAENRT   AKREN UH0    R Z L N49063700E139001700                       W0118     WGE           AKREN                    004032013
SEEUEAENRT   AKRIS UH0    R Z L N49593100E136402200                       W0124     WGE           AKRIS                    004042013
SEEUEAENRT   AKUBI UE0    R Z L N69024700E143044700                       W0158     WGE           AKUBI                    004052013
SEEUEAENRT   ALAKT UH0    R Z L N53013600E158433700                       W0068     WGE           ALAKT                    004062013
SEEUEAENRT   ALANI UI0    R Z L N58003200E114172000                       W0106     WGE           ALANI                    004072013
SEEUEAENRT   ALASE UE0    R Z L N70100000E154440000                       W0117     WGE           ALASE                    004082013
SEEUEAENRT   ALBON UH0    R Z L N65240600E168304600                       W0042     WGE           ALBON                    004092013
SEEUEAENRT   ALEKS UH0    R Z L N43331300E131553900                       W0107     WGE           ALEKS                    004102013
SEEUEAENRT   ALELA US0    R Z B N66153200E078253200                       E0204     WGE           ALELA                    004112013
SEEUEAENRT   ALGAU UE0    R Z L N56070000E130384800                       W0144     WGE           ALGAU                    004122013
SEEUEAENRT   ALISK UH0    R Z L N67440100E167231100                       W0051     WGE           ALISK                    004132013
SEEUEAENRT   ALKUN UH0    R Z L N46373700E134192200                       W0116     WGE           ALKUN                    004142013
SEEUEAENRT   ALODA UN0    R Z B N54364200E072542400                       E0118     WGE           ALODA                    004152013
SEEUEAENRT   ALODI UH0    R Z B N44320000E146431700                       W0089     WGE           ALODI                    004162013
SEEUEAENRT   ALROG UH0    R Z L N44011300E135094600                       W0107     WGE           ALROG                    004172013
SEEUEAENRT   ALRUN UH0    R Z L N63151700E179074000                       E0014     WGE           ALRUN                    004182013
SEEUEAENRT   ALSEN UH0    R Z L N60063600E164270300                       W0055     WGE           ALSEN                    004192013
SEEUEAENRT   ALTAK UE0    R Z L N68154200E112425800                       W0106     WGE           ALTAK                    004202013
SEEUEAENRT   ALUMA US0    R Z B N56224600E061011600                       E0147     WGE           ALUMA                    004212013
SEEUEAENRT   AMAPU UE0    R Z L N69171600E143541400                       W0156     WGE           AMAPU                    004222013
SEEUEAENRT   AMARE UE0    R Z L N65324000E131342400                       W0169     WGE           AMARE                    004232013
SEEUEAENRT   AMBOT UH0    R Z L N50081300E128040300                       W0125     WGE           AMBOT                    004242013
SEEUEAENRT   AMERA UH0    R Z B N50131900E128084500                       W0125     WGE           AMERA                    004252013
SEEUEAENRT   AMESU US0    R Z B N65010400E076592200                       E0196     WGE           AMESU                    004262013
SEEUEAENRT   AMGAA UE0    R Z L N60552400E132073000                       W0157     WGE           AMGAA                    004272013
SEEUEAENRT   AMGMA UH0    R Z L N67025400W178522900                       E0022     WGE           AMGMA                    004282013
SEEUEAENRT   AMIBI UI0    R Z B N58273800E113200200                       W0102     WGE           AMIBI                    004292013
SEEUEAENRT   AMMGU UH0    R Z L N45503000E137404200                       W0111     WGE           AMMGU                    004302013
SEEUEAENRT   AMSIS UH0    R Z L N52370700E158495000                       W0067     WGE           AMSIS                    004312013
SEEUEAENRT   AMURS UH0    R Z L N50131200E136550600                       W0124     WGE           AMURS                    004322108
SEEUEAENRT   ANABA UH0    R Z L N51285600E136252900                       W0128     WGE           ANABA                    004332013
SEEUEAENRT   ANABR UE0    R Z L N70530000E113340000                       W0107     WGE           ANABR                    004342013
SEEUEAENRT   ANAPK UH0    R Z L N60021800E163590800                       W0057     WGE           ANAPK                    004352013
SEEUEAENRT   ANDAR UH0    R Z L N65020000E168395200                       W0041     WGE           ANDAR                    004362013
SEEUEAENRT   ANDEE UI0    R Z L N58074400E114190800                       W0107     WGE           ANDEE                    004372013
SEEUEAENRT   ANENI UN0    R Z B N61384400E097174100                       E0019     WGE           ANENI                    004382013
SEEUEAENRT   ANGAI UH0    R Z L N56033000E158581900                       W0073     WGE           ANGAI                    004392013
SEEUEAENRT   ANGAR UH0    R Z B N52060100E143054900                       W0119     WGE           ANGAR                    004402013
SEEUEAENRT   ANIKU UH0    R Z L N48092000E135081900                       W0120     WGE           ANIKU                    004412013
SEEUEAENRT   ANIMS UH0    R Z L N69351200E177293100                       W0000     WGE           ANIMS                    004422013
SEEUEAENRT   ANIUS UH0    R Z L N48214000E134583300                       W0120     WGE           ANIUS                    004432013
SEEUEAENRT   ANKAK UH0    R Z L N63423600E167414000                       W0044     WGE           ANKAK                    004442013
SEEUEAENRT   ANMIN UH0    R Z L N52455500E140095900                       W0126     WGE           ANMIN                    004452013
SEEUEAENRT   ANOGA UE0    R Z L N71003300E134191900                       W0179     WGE           ANOGA                    004462013
SEEUEAENRT   ANONI UE0    R Z L N69120000E154260000                       W0116     WGE           ANONI                    004472013
SEEUEAENRT   ANRAN UH0    R Z L N66503700E164143500                       W0066     WGE           ANRAN                    004482013
SEEUEAENRT   ANUGA UH0    R Z L N67371300E167262900                       W0051     WGE           ANUGA                    004492013
SEEUEAENRT   ANUSK UE0    R Z L N68203700E161340500                       W0082     WGE           ANUSK                    004502013
SEEUEAENRT   APRUS UN0    R Z B N55590200E091135900                       E0044     WGE           APRUS                    004512013
SEEUEAENRT   APSOD UN0    R Z B N62020600E096552900                       E0024     WGE           APSOD                    004522013
SEEUEAENRT   APTIK UH0    R Z B N55532600E162105600                       W0059     WGE           APTIK                    004532013
SEEUEAENRT   APTIL UH0    R Z B N51274900E132573300                       W0130     WGE           APTIL                    004542013
SEEUEAENRT   ARAKO UE0    R Z L N63552100E141362400                       W0151     WGE           ARAKO                    004552013
SEEUEAENRT   ARBET US0    R ZRB N63395000E065124800                       E0209     WGE           ARBET                    004562013
SEEUEAENRT   ARBIT UH0    R Z L N48530100E135192200                       W0122     WGE           ARBIT                    004572104
SEEUEAENRT   ARDEL UH0    R Z B N46490600E134592400                       W0116     WGE           ARDEL                    004582102
SEEUEAENRT   ARDIB UE0    C ZRB N58360200E125240400                       W0146     WGE           ARDIB                    004592013
SEEUEAENRT   ARDON US0    R Z L N54423700E060443100                       E0135     WGE           ARDON                    004602104
SEEUEAENRT   ARGAS UE0    R Z L N65052400E143040000                       W0149     WGE           ARGAS                    004612013
SEEUEAENRT   ARGIT US0    R Z B N55251300E060511900                       E0140     WGE           ARGIT                    004622013
SEEUEAENRT   ARGOV UH0    R Z B N45500000E143333500                       W0101     WGE           ARGOV                    004632013
SEEUEAENRT   ARGUK UH0    RUZ B N47530000E134393000                       W0119     WGE           ARGUK                    004642013
SEEUEAENRT   ARGUS UI0    R Z L N53410200E109420100                       W0074     WGE           ARGUS                    004652013
SEEUEAENRT   ARIGD UH0    R D L N57240200E136230500                       W0144     WGE           ARIGD                    004662013
SEEUEAENRT   ARION UH0    R Z L N69561900E167593700                       W0052     WGE           ARION                    004672013
SEEUEAENRT   ARKAR UH0    R Z L N49260100E130040400                       W0124     WGE           ARKAR                    004682013
SEEUEAENRT   ARKAT UE0    RUZ B N72010900E112010300                       W0087     WGE           ARKAT                    004692013
SEEUEAENRT   ARKIK UH0    R Z L N48170100E134582200                       W0120     WGE           ARKIK                    004702104
SEEUEAENRT   ARKKA UH0    R Z L N60040200E142190600                       W0140     WGE           ARKKA                    004712013
SEEUEAENRT   ARLAG UE0    R Z B N65130800E125443500                       W0163     WGE           ARLAG                    004722013
SEEUEAENRT   ARLAK UE0    R Z L N66210000E150300000                       W0127     WGE           ARLAK                    004732013
SEEUEAENRT   ARLAS UH0    R Z B N42590700E134355800                       W0104     WGE           ARLAS                    004742013
SEEUEAENRT   ARNAP UH0    C ZRB N64400000E170251000                       W0032     WGE           ARNAP                    004752013
SEEUEAENRT   ARSEN UH0    R Z L N44083300E133161200                       W0108     WGE           ARSEN                    004762013
SEEUEAENRT   ARSOK US0    R Z B N64140400E082465100                       E0156     WGE           ARSOK                    004772013
SEEUEAENRT   ASABA UH0    R Z L N43270700E132091500                       W0106     WGE           ASABA                    004782013
SEEUEAENRT   ASADI UE0    R Z L N67363900E134111000                       W0172     WGE           ASADI                    004792013
SEEUEAENRT   ASANA UE0    RUZ L N63571800E149101500                       W0127     WGE           ASANA                    004802013
SEEUEAENRT   ASANU UH0    R Z L N64541700W174415400                       E0045     WGE           ASANU                    004812013
SEEUEAENRT   ASARI UH0    R Z L N49513100E136504600                       W0123     WGE           ASARI                    004822013
SEEUEAENRT   ASKIB UH0    R Z B N59240700E143031200                       W0137     WGE           ASKIB                    004832013
SEEUEAENRT   ASLAM UH0    R Z L N61003600E170303300                       W0027     WGE           ASLAM                    004842013
SEEUEAENRT   ASLIM US0    RUZRB N55540100E061435500                       E0144     WGE           ASLIM                    004852013
SEEUEAENRT   ASTIT UH0    R Z B N67070100E168331500                       W0044     WGE           ASTIT                    004862013
SEEUEAENRT   ASTUT US0    R Z B N64344100E077392200                       E0188     WGE           ASTUT                    004872013
SEEUEAENRT   ATBAT UI0    R Z B N56004000E109535000                       W0078     WGE           ATBAT                    004882013
SEEUEAENRT   ATKEL UN0    R Z B N65504600E086502600                       E0143     WGE           ATKEL                    004892013
SEEUEAENRT   ATKOR US0    R D B N63390800E065003600                       E0209     WGE           ATKOR                    004902013
SEEUEAENRT   ATLAO UH0    R Z L N55364800E159380100                       W0069     WGE           ATLAO                    004912013
SEEUEAENRT   ATNAD UH0    R Z B N57134600E158415700                       W0076     WGE           ATNAD                    004922013
SEEUEAENRT   ATRAU UE0    R D L N69244400E139381800                       W0168     WGE           ATRAU                    004932013
SEEUEAENRT   AULKI UH0    R Z L N50150100E127470300                       W0125     WGE           AULKI                    004942013
SEEUEAENRT   AURET UH0    R Z L N65572200W170240800                       E0067     WGE           AURET                    004952013
SEEUEAENRT   AURSI UH0    R Z L N51580600E141115100                       W0122     WGE           AURSI                    004962108
SEEUEAENRT   BABEN UH0    R Z L N60414200E165592100                       W0049     WGE           BABEN                    004972013
SEEUEAENRT   BABIM UI0    R Z B N58332600E111571400                       W0094     WGE           BABIM                    004982013
SEEUEAENRT   BABRU UE0    R Z B N63573400E126240300                       W0161     WGE           BABRU                    004992013
SEEUEAENRT   BABSA UH0    R Z L N46011300E133501000                       W0114     WGE           BABSA                    005002013
SEEUEAENRT   BABSO UH0    R Z B N56444200E158400700                       W0076     WGE           BABSO                    005012013
SEEUEAENRT   BADAG UH0    R Z B N43470100E133503400                       W0107     WGE           BADAG                    005022013
SEEUEAENRT   BADAN UI0    R Z L N58472000E116403800                       W0119     WGE           BADAN                    005032013
SEEUEAENRT   BADRI UN0    R Z B N58554900E076404600                       E0138     WGE           BADRI                    005042013
SEEUEAENRT   BAEGA UH0    R Z L N64531200E168351600                       W0041     WGE           BAEGA                    005052013
SEEUEAENRT   BAGDI UN0    C ZRB N73482700E079095300                       E0320     WGE           BAGDI                    005062013
SEEUEAENRT   BAGMO UH0    R Z B N58593600E162190100                       W0063     WGE           BAGMO                    005072013
SEEUEAENRT   BAGOP UE0    R Z B N64594200E142042900                       W0152     WGE           BAGOP                    005082013
SEEUEAENRT   BAGOS UE0    R Z L N65493900E150154300                       W0127     WGE           BAGOS                    005092013
SEEUEAENRT   BAGOT UE0    R Z B N67330200E133230600                       W0173     WGE           BAGOT                    005102013
SEEUEAENRT   BAGVE UH0    R Z L N50253200E127244500                       W0125     WGE           BAGVE                    005112013
SEEUEAENRT   BAIMA UH0    R Z L N66323700E164152900                       W0065     WGE           BAIMA                    005122013
SEEUEAENRT   BAKIN US0    R Z B N62561100E064184000                       E0202     WGE           BAKIN                    005132013
SEEUEAENRT   BAKIP UN0    R Z B N61355400E097165500                       E0019     WGE           BAKIP                    005142013
SEEUEAENRT   BAKIR UH0    R Z L N53144200E159363700                       W0065     WGE           BAKIR                    005152013
SEEUEAENRT   BAKOK UE0    R Z L N57091600E124252900                       W0140     WGE           BAKOK                    005162013
SEEUEAENRT   BAKOR UE0    R Z L N69560000E141000000                       W0166     WGE           BAKOR                    005172013
SEEUEAENRT   BAKUM UH0    R Z B N56201400E135452300                       W0142     WGE           BAKUM                    005182013
SEEUEAENRT   BALET UH0    R Z B N44500100E134010400                       W0110     WGE           BALET                    005192013
SEEUEAENRT   BALKI US0    R Z B N70020600E072484900                       E0275     WGE           BALKI                    005202013
SEEUEAENRT   BALOM UE0    R Z B N71250300E136080800                       W0178     WGE           BALOM                    005212013
SEEUEAENRT   BALON UH0    R Z L N52330100E142343500                       W0121     WGE           BALON                    005222013
SEEUEAENRT   BALUP UI0    R D B N56125900E106430500                       W0059     WGE           BALUP                    005232013
SEEUEAENRT   BAMUL US0    R Z L N63052700E063252800                       E0204     WGE           BAMUL                    005242104
SEEUEAENRT   BANAI UH0    R Z L N52550000E157142500                       W0074     WGE           BANAI                    005252013
SEEUEAENRT   BANAM US0    CUZRB N57071900E063451300                       E0152     WGE           BANAM                    005262013
SEEUEAENRT   BANEG UN0    R Z B N63533300E100373600                       W0004     WGE           BANEG                    005272013
SEEUEAENRT   BANGO UI0    R Z L N50415000E103274800                       W0036     WGE           BANGO                    005282013
SEEUEAENRT   BANIB UE0    R E B N65224700E143093400                       W0150     WGE           BANIB                    005292013
SEEUEAENRT   BANKO UE0    R Z L N67501800E134275100                       W0172     WGE           BANKO                    005302013
SEEUEAENRT   BANON UE0    R Z B N67082600E144080800                       W0151     WGE           BANON                    005312013
SEEUEAENRT   BANOT UH0    R Z B N59403700E149084900                       W0118     WGE           BANOT                    005322013
SEEUEAENRT   BANRA UH0    R Z L N65080000E168543400                       W0040     WGE           BANRA                    005332013
SEEUEAENRT   BANSI UH0    R Z L N64453100W174213300                       E0047     WGE           BANSI                    005342013
SEEUEAENRT   BANTA UN0    RUZ B N65565700E083120800                       E0172     WGE           BANTA                    005352013
SEEUEAENRT   BARIA UH0    R Z L N62270600E166300900                       W0048     WGE           BARIA                    005362013
SEEUEAENRT   BARNA UE0    R Z L N69560000E146120000                       W0150     WGE           BARNA                    005372013
SEEUEAENRT   BARNO UI0    R Z L N51424400E105520100                       W0050     WGE           BARNO                    005382013
SEEUEAENRT   BAROP UE0    R Z B N67580700E156223400                       W0105     WGE           BAROP                    005392013
SEEUEAENRT   BAROV UN0    R Z B N54400200E082365700                       E0085     WGE           BAROV                    005402013
SEEUEAENRT   BARUB UE0    R Z B N70061100E136554100                       W0174     WGE           BARUB                    005412013
SEEUEAENRT   BARUD UI0    R Z L N57520200E114130200                       W0105     WGE           BARUD                    005422013
SEEUEAENRT   BARUM UE0    R Z L N58454600E125492900                       W0147     WGE           BARUM                    005432013
SEEUEAENRT   BARUR UE0    R Z L N66530600E140402400                       W0160     WGE           BARUR                    005442013
SEEUEAENRT   BASAB US0    C ZRB N55461100E063462400                       E0142     WGE           BASAB                    005452013
SEEUEAENRT   BATAB UI0    R Z L N56192000E101110000                       W0022     WGE           BATAB                    005462013
SEEUEAENRT   BATAM UH0    R D L N57303800E135564100                       W0145     WGE           BATAM                    005472013
SEEUEAENRT   BATER UE0    R Z L N61231900E128592200                       W0158     WGE           BATER                    005482013
SEEUEAENRT   BATNI UH0    R Z L N65421100W168582400                       E0074     WGE           BATNI                    005492013
SEEUEAENRT   BAULI UH0    R Z L N48255500E134591100                       W0121     WGE           BAULI                    005502013
SEEUEAENRT   BEBLI UH0    R Z B N52504300E142590600                       W0121     WGE           BEBLI                    005512013
SEEUEAENRT   BEBLU US0    CUZ B N54463000E066503000                       E0131     WGE           BEBLU                    005522013
SEEUEAENRT   BEBON UI0    RUZ L N53581400E121590300                       W0125     WGE           BEBON                    005532013
SEEUEAENRT   BEGTA UN0    R Z B N55300900E096025500                       E0012     WGE           BEGTA                    005542013
SEEUEAENRT   BEKER UH0    R D L N56470700E137395900                       W0141     WGE           BEKER                    005552013
SEEUEAENRT   BEKLE UE0    R Z L N59110100E131530000                       W0152     WGE           BEKLE                    005562013
SEEUEAENRT   BEKMI UH0    C ZRB N69470000E170355500                       W0038     WGE           BEKMI                    005572013
SEEUEAENRT   BEKNE UE0    R Z B N71593100E113141700                       W0099     WGE           BEKNE                    005582013
SEEUEAENRT   BEKSA UH0    R Z L N52563100E141460500                       W0124     WGE           BEKSA                    005592104
SEEUEAENRT   BEKUP US0    R Z B N65420200E082265600                       E0174     WGE           BEKUP                    005602013
SEEUEAENRT   BEKUR UI0    R Z B N52223200E110453700                       W0077     WGE           BEKUR                    005612013
SEEUEAENRT   BEKUT UE0    R Z L N63314400E118021800                       W0136     WGE           BEKUT                    005622013
SEEUEAENRT   BELAD UE0    R Z B N63583200E121023200                       W0148     WGE           BELAD                    005632013
SEEUEAENRT   BELAN UE0    R Z L N68441300E145405600                       W0149     WGE           BELAN                    005642013
SEEUEAENRT   BELAT UH0    R Z L N46334900E134402200                       W0115     WGE           BELAT                    005652013
SEEUEAENRT   BELAU UH0    R Z L N59475400E163234400                       W0059     WGE           BELAU                    005662013
SEEUEAENRT   BELDA UH0    R Z L N43071900E134172800                       W0105     WGE           BELDA                    005672013
SEEUEAENRT   BELDO UE0    RUZ B N64333900E113035600                       W0109     WGE           BELDO                    005682013
SEEUEAENRT   BELEK UE0    R Z B N68170800E142471400                       W0157     WGE           BELEK                    005692013
SEEUEAENRT   BELIM UH0    R Z B N54582100E125151500                       W0135     WGE           BELIM                    005702013
SEEUEAENRT   BEMON UE0    R Z B N67385700E129154800                       W0173     WGE           BEMON                    005712013
SEEUEAENRT   BEMOR UH0    R Z B N44161900E135014600                       W0108     WGE           BEMOR                    005722013
SEEUEAENRT   BEMPO UH0    R Z L N54280200E158230700                       W0073     WGE           BEMPO                    005732104
SEEUEAENRT   BENAK UN0    R Z B N55380300E073062100                       E0125     WGE           BENAK                    005742013
SEEUEAENRT   BENAR UH0    R Z L N52331300E143011100                       W0120     WGE           BENAR                    005752013
SEEUEAENRT   BENGI UH0    R Z L N64095400E171031000                       W0028     WGE           BENGI                    005762013
SEEUEAENRT   BENKA UH0    R Z L N60110600E165272700                       W0050     WGE           BENKA                    005772013
SEEUEAENRT   BENUD UH0    R Z B N62004800E158445000                       W0084     WGE           BENUD                    005782013
SEEUEAENRT   BEPLI UE0    RUZ B N61593600E117160300                       W0129     WGE           BEPLI                    005792013
SEEUEAENRT   BEPSA UE0    R Z B N67470200E130240600                       W0174     WGE           BEPSA                    005802013
SEEUEAENRT   BEPUS UE0    R Z B N69233200E139532000                       W0167     WGE           BEPUS                    005812013
SEEUEAENRT   BERDI UE0    R Z L N56331800E124525900                       W0139     WGE           BERDI                    005822013
SEEUEAENRT   BEREL UH0    R Z L N50144600E137185800                       W0124     WGE           BEREL                    005832013
SEEUEAENRT   BEREM UH0    R Z B N66433000E171001100                       W0031     WGE           BEREM                    005842013
SEEUEAENRT   BERER UH0    R Z B N54250200E127250400                       W0136     WGE           BERER                    005852013
SEEUEAENRT   BERLI UE0    R Z L N70320000E144415100                       W0157     WGE           BERLI                    005862013
SEEUEAENRT   BERLO UH0    R Z L N64533000E169223400                       W0037     WGE           BERLO                    005872013
SEEUEAENRT   BERTS UH0    R Z L N57543000E162024400                       W0063     WGE           BERTS                    005882013
SEEUEAENRT   BESIM UH0    R Z L N66273700E164341700                       W0064     WGE           BESIM                    005892013
SEEUEAENRT   BESTR UH0    R Z L N44243100E135234600                       W0108     WGE           BESTR                    005902013
SEEUEAENRT   BESUK UI0    R Z B N55530400E106104100                       W0056     WGE           BESUK                    005912104
SEEUEAENRT   BETEN UE0    R Z L N55400000E124483000                       W0136     WGE           BETEN                    005922013
SEEUEAENRT   BETIG US0    R ZRB N63524700E064253900                       E0212     WGE           BETIG                    005932013
SEEUEAENRT   BETMI US0    R Z B N65165500E077585800                       E0194     WGE           BETMI                    005942013
SEEUEAENRT   BETUB UH0    R Z B N57370600E157313000                       W0082     WGE           BETUB                    005952013
SEEUEAENRT   BIATU UH0    R Z L N51350100E141550500                       W0120     WGE           BIATU                    005962013
SEEUEAENRT   BIBIR UN0    R Z B N66134500E087363500                       E0141     WGE           BIBIR                    005972013
SEEUEAENRT   BIDAS UH0    R Z L N53252500E140541100                       W0127     WGE           BIDAS                    005982013
SEEUEAENRT   BIGTA UH0    R Z B N56080100E137331700                       W0139     WGE           BIGTA                    005992013
SEEUEAENRT   BIKAL UH0    R Z L N53230700E142204100                       W0124     WGE           BIKAL                    006002013
SEEUEAENRT   BIKIR UH0    R Z L N46490700E134153400                       W0116     WGE           BIKIR                    006012013
SEEUEAENRT   BILON UE0    R Z L N66484400E122502800                       W0160     WGE           BILON                    006022013
SEEUEAENRT   BIMGA UE0    R Z B N67511700E153061600                       W0119     WGE           BIMGA                    006032013
SEEUEAENRT   BINAM UE0    R Z L N57162300E124542000                       W0141     WGE           BINAM                    006042013
SEEUEAENRT   BINER UH0    R Z L N47463100E135372200                       W0118     WGE           BINER                    006052013
SEEUEAENRT   BINES UH0    R Z L N52505600E126365700                       W0131     WGE           BINES                    006062013
SEEUEAENRT   BINGS UH0    R Z L N69524200E175460700                       W0010     WGE           BINGS                    006072013
SEEUEAENRT   BIRAS UH0    R Z L N49000100E132273400                       W0123     WGE           BIRAS                    006082013
SEEUEAENRT   BIRLU UH0    R Z L N49380100E142171100                       W0114     WGE           BIRLU                    006092013
SEEUEAENRT   BISGA UH0    R Z L N46404900E136140400                       W0114     WGE           BISGA                    006102013
SEEUEAENRT   BITKI UH0    R Z L N47480100E135412800                       W0118     WGE           BITKI                    006112104
SEEUEAENRT   BLINA UH0    R Z L N51595500E141131700                       W0122     WGE           BLINA                    006122013
SEEUEAENRT   BLOGI UH0    R Z L N65555100W171405100                       E0060     WGE           BLOGI                    006132013
SEEUEAENRT   BOBEN UE0    R Z L N65300100E150381000                       W0125     WGE           BOBEN                    006142013
SEEUEAENRT   BOKIR UE0    R Z L N67411200E149551800                       W0132     WGE           BOKIR                    006152013
SEEUEAENRT   BOKIS UN0    CUZ B N50573600E083331200                       E0063     WGE           BOKIS                    006162013
SEEUEAENRT   BOKLI UN0    R Z B N63540300E100094200                       E0001     WGE           BOKLI                    006172013
SEEUEAENRT   BOKUR US0    R Z B N63503200E065364200                       E0211     WGE           BOKUR                    006182013
SEEUEAENRT   BOLIK UE0    R Z L N60113400E134073000                       W0154     WGE           BOLIK                    006192013
SEEUEAENRT   BOLIN UH0    R Z L N50195500E136461000                       W0125     WGE           BOLIN                    006202013
SEEUEAENRT   BOLIR UH0    R Z L N69320600E175570700                       W0009     WGE           BOLIR                    006212013
SEEUEAENRT   BOLKO UH0    R Z L N52573100E132433400                       W0135     WGE           BOLKO                    006222013
SEEUEAENRT   BOLOH UE0    R Z L N66160000E143190000                       W0151     WGE           BOLOH                    006232013
SEEUEAENRT   BOLOO UI0    R Z L N58311400E108030700                       W0070     WGE           BOLOO                    006242013
SEEUEAENRT   BONAK UH0    R Z L N54430200E128530400                       W0139     WGE           BONAK                    006252013
SEEUEAENRT   BONAR UH0    R Z L N65123000E168515900                       W0040     WGE           BONAR                    006262013
SEEUEAENRT   BONEN UH0    R Z L N54220200E127290400                       W0136     WGE           BONEN                    006272013
SEEUEAENRT   BONKI UH0    R Z L N49380100E142093500                       W0114     WGE           BONKI                    006282013
SEEUEAENRT   BOTAS UH0    R Z L N59274900E144071800                       W0134     WGE           BOTAS                    006292013
SEEUEAENRT   BOTOK UH0    R Z L N56100000E131030000                       W0144     WGE           BOTOK                    006302013
SEEUEAENRT   BRAGA UH0    R Z L N64284200E177241700                       E0004     WGE           BRAGA                    006312013
SEEUEAENRT   BRANA UH0    R Z L N68300100E168151200                       W0048     WGE           BRANA                    006322013
SEEUEAENRT   BRANS UH0    R Z L N65322900W175561200                       E0038     WGE           BRANS                    006332013
SEEUEAENRT   BRATI UI0    R Z L N56221400E101415500                       W0026     WGE           BRATI                    006342013
SEEUEAENRT   BRAUM UE0    R Z L N68145300E112250800                       W0104     WGE           BRAUM                    006352013
SEEUEAENRT   BRAUS UH0    R Z L N53251800E142273700                       W0123     WGE           BRAUS                    006362108
SEEUEAENRT   BRIGA UH0    R Z L N46412300E142074500                       W0106     WGE           BRIGA                    006372013
SEEUEAENRT   BRING UH0    R Z L N63011500E179172600                       E0015     WGE           BRING                    006382013
SEEUEAENRT   BRODI UH0    R E L N57050700E137090200                       W0143     WGE           BRODI                    006392013
SEEUEAENRT   BROUM UH0    R Z L N67501700W175501600                       E0037     WGE           BROUM                    006402013
SEEUEAENRT   BROUR UE0    R Z L N69311800E132132400                       W0177     WGE           BROUR                    006412013
SEEUEAENRT   BRUDO UH0    R Z L N64530400E171201900                       W0027     WGE           BRUDO                    006422013
SEEUEAENRT   BRUGA UE0    R Z L N67382500E162291700                       W0076     WGE           BRUGA                    006432013
SEEUEAENRT   BRUNS UE0    R Z L N63065400E139090000                       W0154     WGE           BRUNS                    006442013
SEEUEAENRT   BUAGA UI0    R Z L N59195600E112115200                       W0097     WGE           BUAGA                    006452013
SEEUEAENRT   BUGUR UH0    R Z L N66170700E164441100                       W0063     WGE           BUGUR                    006462013
SEEUEAENRT   BULEL UI0    R E B N51543600E108044800                       W0062     WGE           BULEL                    006472013
SEEUEAENRT   BULIT UE0    R Z L N71491000E128081900                       W0178     WGE           BULIT                    006482013
SEEUEAENRT   BULOM US0    R Z B N63003100E064514200                       E0203     WGE           BULOM                    006492013
SEEUEAENRT   BULUN UE0    R Z L N70414800E127230600                       W0176     WGE           BULUN                    006502013
SEEUEAENRT   BUMAD UE0    R Z B N60220200E134260500                       W0154     WGE           BUMAD                    006512013
SEEUEAENRT   BUMAM UI0    R Z H N58183700E112541200                       W0099     WGE           BUMAM                    006522013
SEEUEAENRT   BUMAT UH0    C ZRB N61500700E160325700                       W0076     WGE           BUMAT                    006532013
SEEUEAENRT   BUMUR US0    RUZ B N57481300E058260600                       E0158     WGE           BUMUR                    006542013
SEEUEAENRT   BUNAK UN0    R Z B N54550000E084210000                       E0078     PUK           BUNAK                    006552013
SEEUEAENRT   BUNDI UH0    R Z L N45521900E133542800                       W0113     WGE           BUNDI                    006562013
SEEUEAENRT   BUNET UN0    R Z B N55093700E072413800                       E0123     WGE           BUNET                    006572013
SEEUEAENRT   BUNGE UH0    R Z L N46544000E142403000                       W0106     WGE           BUNGE                    006582013
SEEUEAENRT   BUPAK UH0    R Z B N57270700E157444300                       W0081     WGE           BUPAK                    006592013
SEEUEAENRT   BURAK UH0    R Z L N60072400E165171500                       W0051     WGE           BURAK                    006602013
SEEUEAENRT   BURUS UE0    R Z L N64250000E144412400                       W0143     WGE           BURUS                    006612013
SEEUEAENRT   BUSOR UE0    R Z L N60391800E116250700                       W0122     WGE           BUSOR                    006622013
SEEUEAENRT   DABNA UH0    R Z L N48493700E135285200                       W0121     WGE           DABNA                    006632013
SEEUEAENRT   DABOL UH0    R Z L N58310600E162162000                       W0063     WGE           DABOL                    006642013
SEEUEAENRT   DABUR UH0    R Z B N51470700E142355900                       W0119     WGE           DABUR                    006652014
SEEUEAENRT   DADIN UI0    R Z L N55432600E105440700                       W0053     WGE           DADIN                    006662013
SEEUEAENRT   DAGAR UI0    R Z L N55422600E109524900                       W0078     WGE           DAGAR                    006672013
SEEUEAENRT   DAGES UH0    R E B N43393700E132475200                       W0107     WGE           DAGES                    006682013
SEEUEAENRT   DAGON UE0    R Z L N69293800E139191500                       W0169     WGE           DAGON                    006692013
SEEUEAENRT   DAKIN UN0    CUZ B N54093000E072241800                       E0116     WGE           DAKIN                    006702013
SEEUEAENRT   DALEK UE0    R Z L N65392400E147583600                       W0135     WGE           DALEK                    006712013
SEEUEAENRT   DALNO UH0    R Z L N44340100E135380400                       W0109     WGE           DALNO                    006722013
SEEUEAENRT   DALUK UI0    R Z L N54205000E109303100                       W0074     WGE           DALUK                    006732013
SEEUEAENRT   DAMUR UH0    R Z L N64515400E175565300                       W0003     WGE           DAMUR                    006742013
SEEUEAENRT   DANAS UE0    R Z L N62344200E136293000                       W0157     WGE           DANAS                    006752013
SEEUEAENRT   DANIL UH0    R Z L N48351700E134360600                       W0121     WGE           DANIL                    006762013
SEEUEAENRT   DAPER UI0    R Z L N55444400E108464300                       W0071     WGE           DAPER                    006772013
SEEUEAENRT   DARAR UH0    R Z L N65421300E161511000                       W0076     WGE           DARAR                    006782013
SEEUEAENRT   DARIN UE0    R Z L N67383300E129000000                       W0173     WGE           DARIN                    006792013
SEEUEAENRT   DARSA UH0    R Z L N53411300E135494100                       W0135     WGE           DARSA                    006802013
SEEUEAENRT   DASKO UH0    C ZRB N49061900E138083400                       W0119     WGE           DASKO                    006812013
SEEUEAENRT   DATOK UH0    R Z L N51481900E142340500                       W0119     WGE           DATOK                    006822013
SEEUEAENRT   DATUS UH0    R Z L N43165900E132172000                       W0106     WGE           DATUS                    006832013
SEEUEAENRT   DBARI UE0    R Z L N62121200E135514800                       W0157     WGE           DBARI                    006842013
SEEUEAENRT   DEKAK UH0    R Z L N59032700E148092500                       W0121     WGE           DEKAK                    006852104
SEEUEAENRT   DEKES UE0    R Z L N56110000E129290000                       W0143     WGE           DEKES                    006862013
SEEUEAENRT   DEKLA UE0    R Z L N66130900E146282600                       W0141     WGE           DEKLA                    006872013
SEEUEAENRT   DELAK UH0    R Z L N65505900W170304700                       E0066     WGE           DELAK                    006882013
SEEUEAENRT   DELOK UE0    R Z B N55254400E124181500                       W0135     WGE           DELOK                    006892013
SEEUEAENRT   DELOL UH0    R Z L N64474100W172360700                       E0056     WGE           DELOL                    006902013
SEEUEAENRT   DEMAT UH0    R Z L N64475300W172404600                       E0056     WGE           DEMAT                    006912013
SEEUEAENRT   DENAR UE0    R Z L N62451800E127073000                       W0159     WGE           DENAR                    006922013
SEEUEAENRT   DENED UH0    R Z L N52173900E159025100                       W0066     WGE           DENED                    006932013
SEEUEAENRT   DENOD UH0    R Z L N56434800E138301200                       W0140     WGE           DENOD                    006942013
SEEUEAENRT   DEPUM UH0    R Z L N55040500E158341800                       W0073     WGE           DEPUM                    006952104
SEEUEAENRT   DEPUP UH0    R Z L N64131700W172554700                       E0055     WGE           DEPUP                    006962013
SEEUEAENRT   DERUD UH0    R Z B N60490700E152235000                       W0109     WGE           DERUD                    006972013
SEEUEAENRT   DETER UE0    R Z L N70061700E155085400                       W0115     WGE           DETER                    006982013
SEEUEAENRT   DETOP UH0    R Z B N59113200E162113600                       W0064     WGE           DETOP                    006992013
SEEUEAENRT   DIDEK UH0    R Z B N48543100E134143400                       W0122     WGE           DIDEK                    007002013
SEEUEAENRT   DIKRA UI0    R Z B N52093600E114091200                       W0092     WGE           DIKRA                    007012013
SEEUEAENRT   DIKSA UN0    R Z B N58243700E099451600                       W0009     WGE           DIKSA                    007022013
SEEUEAENRT   DIMED UH0    R Z B N54203100E134421100                       W0138     WGE           DIMED                    007032013
SEEUEAENRT   DIMIG UN0    R Z B N61154100E096423300                       E0023     WGE           DIMIG                    007042013
SEEUEAENRT   DIMUR UH0    R Z B N65201100W171291100                       E0061     WGE           DIMUR                    007052013
SEEUEAENRT   DINAT US0    C ZRB N58122700E069034100                       E0154     WGE           DINAT                    007062013
SEEUEAENRT   DINDA UE0    R Z L N55410000E127580000                       W0141     WGE           DINDA                    007072013
SEEUEAENRT   DINEP UI0    RUZ B N58593800E103513600                       W0040     WGE           DINEP                    007082013
SEEUEAENRT   DINTO UE0    C ZRB N62425600E123571000                       W0154     WGE           DINTO                    007092013
SEEUEAENRT   DIOLO UH0    R Z L N64320600E172454600                       W0020     WGE           DIOLO                    007102013
SEEUEAENRT   DIRIN UE0    R Z L N67295500E112151300                       W0103     WGE           DIRIN                    007112013
SEEUEAENRT   DIRKI UE0    R Z B N64564300E144151900                       W0146     WGE           DIRKI                    007122013
SEEUEAENRT   DIROR UN0    R Z B N65543000E086515700                       E0143     WGE           DIROR                    007132013
SEEUEAENRT   DIRSI UI0    R Z B N58114400E111382600                       W0092     WGE           DIRSI                    007142013
SEEUEAENRT   DIRUK US0    R Z B N63461400E082492800                       E0151     WGE           DIRUK                    007152013
SEEUEAENRT   DISAG UH0    R Z B N55040200E165420500                       W0042     WGE           DISAG                    007162013
SEEUEAENRT   DISAM UE0    R Z B N71591900E117334800                       W0135     WGE           DISAM                    007172013
SEEUEAENRT   DISED UI0    R Z B N59312600E110010100                       W0084     WGE           DISED                    007182013
SEEUEAENRT   DISPU UH0    R Z L N56485500E137435900                       W0141     WGE           DISPU                    007192104
SEEUEAENRT   DITKU UN0    R Z B N60422000E102082200                       W0025     WGE           DITKU                    007202013
SEEUEAENRT   DITLU UH0    R Z L N53272600E127371600                       W0134     WGE           DITLU                    007212013
SEEUEAENRT   DITNU UH0    R Z B N60500100E166022400                       W0048     WGE           DITNU                    007222013
SEEUEAENRT   DITOR UH0    R Z B N49110100E142050500                       W0113     WGE           DITOR                    007232013
SEEUEAENRT   DITUN UE0    R Z L N70291600E147325500                       W0147     WGE           DITUN                    007242013
SEEUEAENRT   DMARO UH0    R Z L N48430100E134395800                       W0122     WGE           DMARO                    007252013
SEEUEAENRT   DNERK UH0    R Z L N45523900E133440700                       W0114     WGE           DNERK                    007262013
SEEUEAENRT   DOGOP UH0    R Z L N51164900E142412900                       W0117     WGE           DOGOP                    007272013
SEEUEAENRT   DOGOR UH0    R Z L N53051200E157494300                       W0072     WGE           DOGOR                    007282013
SEEUEAENRT   DOGOT UL0    RUZ B N75582100E083571800                       E0346     WGE           DOGOT                    007292013
SEEUEAENRT   DOKOL US0    R D B N57593400E067360000                       E0154     WGE           DOKOL                    007302013
SEEUEAENRT   DOLMA UH0    R D B N43482500E132375700                       W0108     WGE           DOLMA                    007312013
SEEUEAENRT   DOLMI UE0    R Z L N63023800E118324800                       W0137     WGE           DOLMI                    007322013
SEEUEAENRT   DOMIR UE0    R Z L N61540000E129311200                       W0159     WGE           DOMIR                    007332013
SEEUEAENRT   DOMOT UI0    R Z L N57540800E114260200                       W0107     WGE           DOMOT                    007342013
SEEUEAENRT   DOMUD UH0    R Z B N56150000E162000000                       W0060     WGE           DOMUD                    007352013
SEEUEAENRT   DOROR UN0    R Z L N56020200E090174600                       E0050     WGE           DOROR                    007362013
SEEUEAENRT   DOSIB UH0    R Z B N54370200E156033200                       W0082     WGE           DOSIB                    007372013
SEEUEAENRT   DOSIR US0    R Z B N65214100E082551700                       E0167     WGE           DOSIR                    007382013
SEEUEAENRT   DOSOT UE0    R Z B N64215100E141432600                       W0151     WGE           DOSOT                    007392013
SEEUEAENRT   DOSUM US0    R DRB N57172000E061240100                       E0154     WGE           DOSUM                    007402013
SEEUEAENRT   DOTNI UH0    R Z L N54012000E126374600                       W0134     WGE           DOTNI                    007412013
SEEUEAENRT   DRAGI UH0    R Z L N48581300E139472500                       W0117     WGE           DRAGI                    007422108
SEEUEAENRT   DRAKI UH0    R Z L N68083300E167364100                       W0051     WGE           DRAKI                    007432013
SEEUEAENRT   DRIGU UH0    R Z L N65340500W172045500                       E0058     WGE           DRIGU                    007442013
SEEUEAENRT   DROBI UH0    R Z L N52204100E141115000                       W0123     WGE           DROBI                    007452108
SEEUEAENRT   DRONI UE0    R Z L N58133500E124563600                       W0144     WGE           DRONI                    007462013
SEEUEAENRT   DUBIN UI0    R Z L N56353800E101473000                       W0026     WGE           DUBIN                    007472013
